{
  "contractName": "kidney",
  "abi": [
    {
      "constant": true,
      "inputs": [
        {
          "internalType": "uint256",
          "name": "",
          "type": "uint256"
        }
      ],
      "name": "donation",
      "outputs": [
        {
          "internalType": "string",
          "name": "p_name",
          "type": "string"
        },
        {
          "internalType": "string",
          "name": "blood_group",
          "type": "string"
        },
        {
          "internalType": "string",
          "name": "city",
          "type": "string"
        },
        {
          "internalType": "address",
          "name": "customer",
          "type": "address"
        },
        {
          "internalType": "uint256",
          "name": "mobile",
          "type": "uint256"
        },
        {
          "internalType": "bool",
          "name": "door",
          "type": "bool"
        },
        {
          "internalType": "string",
          "name": "hla",
          "type": "string"
        },
        {
          "internalType": "enum kidney.state",
          "name": "donationstate",
          "type": "uint8"
        }
      ],
      "payable": false,
      "stateMutability": "view",
      "type": "function"
    },
    {
      "constant": false,
      "inputs": [
        {
          "internalType": "string",
          "name": "p_name",
          "type": "string"
        },
        {
          "internalType": "string",
          "name": "blood_group",
          "type": "string"
        },
        {
          "internalType": "string",
          "name": "city",
          "type": "string"
        },
        {
          "internalType": "uint256",
          "name": "mobile",
          "type": "uint256"
        },
        {
          "internalType": "bool",
          "name": "door",
          "type": "bool"
        },
        {
          "internalType": "string",
          "name": "hla",
          "type": "string"
        }
      ],
      "name": "storedata",
      "outputs": [],
      "payable": false,
      "stateMutability": "nonpayable",
      "type": "function"
    },
    {
      "constant": true,
      "inputs": [
        {
          "internalType": "uint256",
          "name": "userid",
          "type": "uint256"
        }
      ],
      "name": "getdatauser",
      "outputs": [
        {
          "internalType": "address",
          "name": "",
          "type": "address"
        },
        {
          "internalType": "string",
          "name": "",
          "type": "string"
        },
        {
          "internalType": "enum kidney.state",
          "name": "",
          "type": "uint8"
        },
        {
          "internalType": "string",
          "name": "",
          "type": "string"
        }
      ],
      "payable": false,
      "stateMutability": "view",
      "type": "function"
    },
    {
      "constant": true,
      "inputs": [],
      "name": "gettotalcount",
      "outputs": [
        {
          "internalType": "uint256",
          "name": "",
          "type": "uint256"
        }
      ],
      "payable": false,
      "stateMutability": "view",
      "type": "function"
    }
  ],
  "bytecode": "0x608060405234801561001057600080fd5b50610ff4806100206000396000f3fe608060405234801561001057600080fd5b506004361061004c5760003560e01c8063a67a36d414610051578063cb3414101461006f578063ec094ab814610305578063fdac325414610460575b600080fd5b6100596106a5565b6040518082815260200191505060405180910390f35b610303600480360360c081101561008557600080fd5b81019080803590602001906401000000008111156100a257600080fd5b8201836020820111156100b457600080fd5b803590602001918460018302840111640100000000831117156100d657600080fd5b91908080601f016020809104026020016040519081016040528093929190818152602001838380828437600081840152601f19601f8201169050808301925050505050505091929192908035906020019064010000000081111561013957600080fd5b82018360208201111561014b57600080fd5b8035906020019184600183028401116401000000008311171561016d57600080fd5b91908080601f016020809104026020016040519081016040528093929190818152602001838380828437600081840152601f19601f820116905080830192505050505050509192919290803590602001906401000000008111156101d057600080fd5b8201836020820111156101e257600080fd5b8035906020019184600183028401116401000000008311171561020457600080fd5b91908080601f016020809104026020016040519081016040528093929190818152602001838380828437600081840152601f19601f820116905080830192505050505050509192919290803590602001909291908035151590602001909291908035906020019064010000000081111561027d57600080fd5b82018360208201111561028f57600080fd5b803590602001918460018302840111640100000000831117156102b157600080fd5b91908080601f016020809104026020016040519081016040528093929190818152602001838380828437600081840152601f19601f8201169050808301925050505050505091929192905050506106ae565b005b6103316004803603602081101561031b57600080fd5b8101908080359060200190929190505050610845565b604051808573ffffffffffffffffffffffffffffffffffffffff1673ffffffffffffffffffffffffffffffffffffffff1681526020018060200184600281111561037757fe5b60ff16815260200180602001838103835286818151815260200191508051906020019080838360005b838110156103bb5780820151818401526020810190506103a0565b50505050905090810190601f1680156103e85780820380516001836020036101000a031916815260200191505b50838103825284818151815260200191508051906020019080838360005b83811015610421578082015181840152602081019050610406565b50505050905090810190601f16801561044e5780820380516001836020036101000a031916815260200191505b50965050505050505060405180910390f35b61048c6004803603602081101561047657600080fd5b8101908080359060200190929190505050610bd0565b604051808060200180602001806020018973ffffffffffffffffffffffffffffffffffffffff1673ffffffffffffffffffffffffffffffffffffffff16815260200188815260200187151515158152602001806020018660028111156104ee57fe5b60ff16815260200185810385528d818151815260200191508051906020019080838360005b8381101561052e578082015181840152602081019050610513565b50505050905090810190601f16801561055b5780820380516001836020036101000a031916815260200191505b5085810384528c818151815260200191508051906020019080838360005b83811015610594578082015181840152602081019050610579565b50505050905090810190601f1680156105c15780820380516001836020036101000a031916815260200191505b5085810383528b818151815260200191508051906020019080838360005b838110156105fa5780820151818401526020810190506105df565b50505050905090810190601f1680156106275780820380516001836020036101000a031916815260200191505b50858103825287818151815260200191508051906020019080838360005b83811015610660578082015181840152602081019050610645565b50505050905090810190601f16801561068d5780820380516001836020036101000a031916815260200191505b509c5050505050505050505050505060405180910390f35b60008054905090565b6001600054016000819055506040518061010001604052808781526020018681526020018581526020013373ffffffffffffffffffffffffffffffffffffffff16815260200184815260200183151581526020018281526020016000600281111561071557fe5b81525060026000805481526020019081526020016000206000820151816000019080519060200190610748929190610eb2565b506020820151816001019080519060200190610765929190610eb2565b506040820151816002019080519060200190610782929190610eb2565b5060608201518160030160006101000a81548173ffffffffffffffffffffffffffffffffffffffff021916908373ffffffffffffffffffffffffffffffffffffffff1602179055506080820151816004015560a08201518160050160006101000a81548160ff02191690831515021790555060c0820151816006019080519060200190610810929190610eb2565b5060e08201518160070160006101000a81548160ff0219169083600281111561083557fe5b0217905550905050505050505050565b6000606060006060610855610f32565b6002600087815260200190815260200160002060405180610100016040529081600082018054600181600116156101000203166002900480601f01602080910402602001604051908101604052809291908181526020018280546001816001161561010002031660029004801561090d5780601f106108e25761010080835404028352916020019161090d565b820191906000526020600020905b8154815290600101906020018083116108f057829003601f168201915b50505050508152602001600182018054600181600116156101000203166002900480601f0160208091040260200160405190810160405280929190818152602001828054600181600116156101000203166002900480156109af5780601f10610984576101008083540402835291602001916109af565b820191906000526020600020905b81548152906001019060200180831161099257829003601f168201915b50505050508152602001600282018054600181600116156101000203166002900480601f016020809104026020016040519081016040528092919081815260200182805460018160011615610100020316600290048015610a515780601f10610a2657610100808354040283529160200191610a51565b820191906000526020600020905b815481529060010190602001808311610a3457829003601f168201915b505050505081526020016003820160009054906101000a900473ffffffffffffffffffffffffffffffffffffffff1673ffffffffffffffffffffffffffffffffffffffff1673ffffffffffffffffffffffffffffffffffffffff168152602001600482015481526020016005820160009054906101000a900460ff16151515158152602001600682018054600181600116156101000203166002900480601f016020809104026020016040519081016040528092919081815260200182805460018160011615610100020316600290048015610b6e5780601f10610b4357610100808354040283529160200191610b6e565b820191906000526020600020905b815481529060010190602001808311610b5157829003601f168201915b505050505081526020016007820160009054906101000a900460ff166002811115610b9557fe5b6002811115610ba057fe5b815250509050806060015181600001518260e0015183604001518292508090509450945094509450509193509193565b6002602052806000526040600020600091509050806000018054600181600116156101000203166002900480601f016020809104026020016040519081016040528092919081815260200182805460018160011615610100020316600290048015610c7c5780601f10610c5157610100808354040283529160200191610c7c565b820191906000526020600020905b815481529060010190602001808311610c5f57829003601f168201915b505050505090806001018054600181600116156101000203166002900480601f016020809104026020016040519081016040528092919081815260200182805460018160011615610100020316600290048015610d1a5780601f10610cef57610100808354040283529160200191610d1a565b820191906000526020600020905b815481529060010190602001808311610cfd57829003601f168201915b505050505090806002018054600181600116156101000203166002900480601f016020809104026020016040519081016040528092919081815260200182805460018160011615610100020316600290048015610db85780601f10610d8d57610100808354040283529160200191610db8565b820191906000526020600020905b815481529060010190602001808311610d9b57829003601f168201915b5050505050908060030160009054906101000a900473ffffffffffffffffffffffffffffffffffffffff16908060040154908060050160009054906101000a900460ff1690806006018054600181600116156101000203166002900480601f016020809104026020016040519081016040528092919081815260200182805460018160011615610100020316600290048015610e955780601f10610e6a57610100808354040283529160200191610e95565b820191906000526020600020905b815481529060010190602001808311610e7857829003601f168201915b5050505050908060070160009054906101000a900460ff16905088565b828054600181600116156101000203166002900490600052602060002090601f016020900481019282601f10610ef357805160ff1916838001178555610f21565b82800160010185558215610f21579182015b82811115610f20578251825591602001919060010190610f05565b5b509050610f2e9190610f9a565b5090565b604051806101000160405280606081526020016060815260200160608152602001600073ffffffffffffffffffffffffffffffffffffffff168152602001600081526020016000151581526020016060815260200160006002811115610f9457fe5b81525090565b610fbc91905b80821115610fb8576000816000905550600101610fa0565b5090565b9056fea265627a7a723158203561f57db424ae1e641e0f83f978d395c5cc6fd9dede193ca460c86e56c369ea64736f6c63430005100032",
  "source": "pragma solidity >=0.4.0 <=0.6.0;\r\n\r\ncontract kidney\r\n{\r\n    struct Donation\r\n    {\r\n        string p_name;\r\n        string blood_group;\r\n        string city;\r\n        address customer;\r\n        uint256 mobile;\r\n        bool door;\r\n        string hla;\r\n        state donationstate;\r\n    }\r\n    \r\n    enum state{Created, Notfound, Found}\r\n    uint id;\r\n    \r\n    uint v;\r\n    mapping(uint=>Donation) public donation;\r\n    \r\n    function storedata(string memory p_name,string memory blood_group, string memory city,uint256 mobile,bool door, string memory hla) public\r\n    {\r\n        id=id+1;\r\n        donation[id]=Donation(p_name,blood_group,city,msg.sender,mobile,door,hla,state.Created);    \r\n    }\r\n    \r\n    function getdatauser(uint userid) public view returns(address,string memory,state,string memory)\r\n    {\r\n        Donation memory x=donation[userid];\r\n        return (x.customer,x.p_name,x.donationstate,x.city);\r\n    }\r\n    \r\n    // function displaydata(uint userid) public view returns(string memory)\r\n    // {\r\n    //     Donation memory orderdetails=donation[userid];\r\n    //     return orderdetails.p_name;\r\n    // }\r\n\r\n    // function donationstate(uint userid) public view returns(state)\r\n    // {\r\n    //     Donation memory orderdetails=donation[userid];\r\n    //     return orderdetails.donationstate;//Define the state of Donation\r\n    // }\r\n\r\n    function gettotalcount() public view returns(uint)\r\n    {\r\n        return id;\r\n    }\r\n\r\n}",
  "sourcePath": "C:\\Users\\shavej shaikh\\Desktop\\Nodejs\\finalproject\\contracts\\kidney.sol",
  "compiler": {
    "name": "solc",
    "version": "0.5.16+commit.9c3226ce.Emscripten.clang"
  },
  "schemaVersion": "3.0.23",
  "updatedAt": "2020-03-02T16:22:17.340Z",
  "devdoc": {
    "methods": {}
  },
  "userdoc": {
    "methods": {}
  }
}