{
  "contractName": "kidney",
  "abi": [
    {
      "constant": false,
      "inputs": [
        {
          "internalType": "string",
          "name": "p_name",
          "type": "string"
        },
        {
          "internalType": "string",
          "name": "blood_group",
          "type": "string"
        },
        {
          "internalType": "string",
          "name": "city",
          "type": "string"
        }
      ],
      "name": "storedata",
      "outputs": [],
      "payable": false,
      "stateMutability": "nonpayable",
      "type": "function"
    },
    {
      "constant": true,
      "inputs": [
        {
          "internalType": "uint256",
          "name": "userid",
          "type": "uint256"
        }
      ],
      "name": "getdatauser",
      "outputs": [
        {
          "internalType": "address",
          "name": "",
          "type": "address"
        }
      ],
      "payable": false,
      "stateMutability": "view",
      "type": "function"
    },
    {
      "constant": true,
      "inputs": [
        {
          "internalType": "uint256",
          "name": "userid",
          "type": "uint256"
        }
      ],
      "name": "displaydata",
      "outputs": [
        {
          "internalType": "string",
          "name": "",
          "type": "string"
        }
      ],
      "payable": false,
      "stateMutability": "view",
      "type": "function"
    },
    {
      "constant": true,
      "inputs": [
        {
          "internalType": "uint256",
          "name": "userid",
          "type": "uint256"
        }
      ],
      "name": "donationstate",
      "outputs": [
        {
          "internalType": "enum kidney.state",
          "name": "",
          "type": "uint8"
        }
      ],
      "payable": false,
      "stateMutability": "view",
      "type": "function"
    },
    {
      "constant": true,
      "inputs": [],
      "name": "gettotalcount",
      "outputs": [
        {
          "internalType": "uint256",
          "name": "",
          "type": "uint256"
        }
      ],
      "payable": false,
      "stateMutability": "view",
      "type": "function"
    }
  ],
  "bytecode": "0x608060405234801561001057600080fd5b50610e13806100206000396000f3fe608060405234801561001057600080fd5b50600436106100575760003560e01c80630b9736581461005c578063719c06f114610103578063a67a36d4146102ec578063dbb3cb401461030a578063ec094ab81461035a575b600080fd5b6100886004803603602081101561007257600080fd5b81019080803590602001909291905050506103c8565b6040518080602001828103825283818151815260200191508051906020019080838360005b838110156100c85780820151818401526020810190506100ad565b50505050905090810190601f1680156100f55780820380516001836020036101000a031916815260200191505b509250505060405180910390f35b6102ea6004803603606081101561011957600080fd5b810190808035906020019064010000000081111561013657600080fd5b82018360208201111561014857600080fd5b8035906020019184600183028401116401000000008311171561016a57600080fd5b91908080601f016020809104026020016040519081016040528093929190818152602001838380828437600081840152601f19601f820116905080830192505050505050509192919290803590602001906401000000008111156101cd57600080fd5b8201836020820111156101df57600080fd5b8035906020019184600183028401116401000000008311171561020157600080fd5b91908080601f016020809104026020016040519081016040528093929190818152602001838380828437600081840152601f19601f8201169050808301925050505050505091929192908035906020019064010000000081111561026457600080fd5b82018360208201111561027657600080fd5b8035906020019184600183028401116401000000008311171561029857600080fd5b91908080601f016020809104026020016040519081016040528093929190818152602001838380828437600081840152601f19601f820116905080830192505050505050509192919290505050610668565b005b6102f46107a0565b6040518082815260200191505060405180910390f35b6103366004803603602081101561032057600080fd5b81019080803590602001909291905050506107a9565b6040518082600281111561034657fe5b60ff16815260200191505060405180910390f35b6103866004803603602081101561037057600080fd5b8101908080359060200190929190505050610a49565b604051808273ffffffffffffffffffffffffffffffffffffffff1673ffffffffffffffffffffffffffffffffffffffff16815260200191505060405180910390f35b60606103d2610ce9565b600160008481526020019081526020016000206040518060a0016040529081600082018054600181600116156101000203166002900480601f0160208091040260200160405190810160405280929190818152602001828054600181600116156101000203166002900480156104895780601f1061045e57610100808354040283529160200191610489565b820191906000526020600020905b81548152906001019060200180831161046c57829003601f168201915b50505050508152602001600182018054600181600116156101000203166002900480601f01602080910402602001604051908101604052809291908181526020018280546001816001161561010002031660029004801561052b5780601f106105005761010080835404028352916020019161052b565b820191906000526020600020905b81548152906001019060200180831161050e57829003601f168201915b50505050508152602001600282018054600181600116156101000203166002900480601f0160208091040260200160405190810160405280929190818152602001828054600181600116156101000203166002900480156105cd5780601f106105a2576101008083540402835291602001916105cd565b820191906000526020600020905b8154815290600101906020018083116105b057829003601f168201915b505050505081526020016003820160009054906101000a900473ffffffffffffffffffffffffffffffffffffffff1673ffffffffffffffffffffffffffffffffffffffff1673ffffffffffffffffffffffffffffffffffffffff1681526020016003820160149054906101000a900460ff16600281111561064a57fe5b600281111561065557fe5b8152505090508060000151915050919050565b6001600054016000819055506040518060a001604052808481526020018381526020018281526020013373ffffffffffffffffffffffffffffffffffffffff168152602001600060028111156106ba57fe5b815250600160008054815260200190815260200160002060008201518160000190805190602001906106ed929190610d39565b50602082015181600101908051906020019061070a929190610d39565b506040820151816002019080519060200190610727929190610d39565b5060608201518160030160006101000a81548173ffffffffffffffffffffffffffffffffffffffff021916908373ffffffffffffffffffffffffffffffffffffffff16021790555060808201518160030160146101000a81548160ff0219169083600281111561079357fe5b0217905550905050505050565b60008054905090565b60006107b3610ce9565b600160008481526020019081526020016000206040518060a0016040529081600082018054600181600116156101000203166002900480601f01602080910402602001604051908101604052809291908181526020018280546001816001161561010002031660029004801561086a5780601f1061083f5761010080835404028352916020019161086a565b820191906000526020600020905b81548152906001019060200180831161084d57829003601f168201915b50505050508152602001600182018054600181600116156101000203166002900480601f01602080910402602001604051908101604052809291908181526020018280546001816001161561010002031660029004801561090c5780601f106108e15761010080835404028352916020019161090c565b820191906000526020600020905b8154815290600101906020018083116108ef57829003601f168201915b50505050508152602001600282018054600181600116156101000203166002900480601f0160208091040260200160405190810160405280929190818152602001828054600181600116156101000203166002900480156109ae5780601f10610983576101008083540402835291602001916109ae565b820191906000526020600020905b81548152906001019060200180831161099157829003601f168201915b505050505081526020016003820160009054906101000a900473ffffffffffffffffffffffffffffffffffffffff1673ffffffffffffffffffffffffffffffffffffffff1673ffffffffffffffffffffffffffffffffffffffff1681526020016003820160149054906101000a900460ff166002811115610a2b57fe5b6002811115610a3657fe5b8152505090508060800151915050919050565b6000610a53610ce9565b600160008481526020019081526020016000206040518060a0016040529081600082018054600181600116156101000203166002900480601f016020809104026020016040519081016040528092919081815260200182805460018160011615610100020316600290048015610b0a5780601f10610adf57610100808354040283529160200191610b0a565b820191906000526020600020905b815481529060010190602001808311610aed57829003601f168201915b50505050508152602001600182018054600181600116156101000203166002900480601f016020809104026020016040519081016040528092919081815260200182805460018160011615610100020316600290048015610bac5780601f10610b8157610100808354040283529160200191610bac565b820191906000526020600020905b815481529060010190602001808311610b8f57829003601f168201915b50505050508152602001600282018054600181600116156101000203166002900480601f016020809104026020016040519081016040528092919081815260200182805460018160011615610100020316600290048015610c4e5780601f10610c2357610100808354040283529160200191610c4e565b820191906000526020600020905b815481529060010190602001808311610c3157829003601f168201915b505050505081526020016003820160009054906101000a900473ffffffffffffffffffffffffffffffffffffffff1673ffffffffffffffffffffffffffffffffffffffff1673ffffffffffffffffffffffffffffffffffffffff1681526020016003820160149054906101000a900460ff166002811115610ccb57fe5b6002811115610cd657fe5b8152505090508060600151915050919050565b6040518060a00160405280606081526020016060815260200160608152602001600073ffffffffffffffffffffffffffffffffffffffff16815260200160006002811115610d3357fe5b81525090565b828054600181600116156101000203166002900490600052602060002090601f016020900481019282601f10610d7a57805160ff1916838001178555610da8565b82800160010185558215610da8579182015b82811115610da7578251825591602001919060010190610d8c565b5b509050610db59190610db9565b5090565b610ddb91905b80821115610dd7576000816000905550600101610dbf565b5090565b9056fea265627a7a72315820270ec96f3218b977fb0675b06a4c45bfe956292a0759980f9a88290aee6f1d5664736f6c63430005100032",
  "source": "pragma solidity >=0.4.0 <=0.6.0;\r\n\r\ncontract kidney\r\n{\r\n    struct Donation\r\n    {\r\n        string p_name;\r\n        string blood_group;\r\n        string city;\r\n        address customer;\r\n        state donationstate;\r\n    }\r\n    \r\n    enum state { Created, Notfound, Found}\r\n    \r\n    uint id;\r\n    \r\n    mapping(uint=>Donation)donation;\r\n    \r\n    // modifier onlyOwner()\r\n    // {\r\n    //     require(msg.sender==_owner,\"Invallid user\");\r\n    //     _;\r\n    // }\r\n    \r\n    function storedata(string memory p_name,string memory blood_group, string memory city) public\r\n    {\r\n        id=id+1;\r\n        donation[id]=Donation(p_name,blood_group,city,msg.sender,state.Created);    \r\n    }\r\n    \r\n    function getdatauser(uint userid) public view returns(address)\r\n    {\r\n        Donation memory orderdetails=donation[userid];\r\n        return orderdetails.customer;\r\n        \r\n    }\r\n    \r\n    function displaydata(uint userid) public view returns(string memory)\r\n    {\r\n        Donation memory orderdetails=donation[userid];\r\n        return orderdetails.p_name;\r\n    }\r\n    \r\n    function donationstate(uint userid) public view returns(state)\r\n    {\r\n        Donation memory orderdetails=donation[userid];\r\n        return orderdetails.donationstate;//Define the state of Donation\r\n    }\r\n    \r\n    // function matching()public view returns(state)\r\n    // {\r\n    //     for (uint i=0;i<id;i++)\r\n    //     {\r\n    //         if(donation[i].blood_group==donation[i+1].blood_group)\r\n    //         {\r\n                \r\n    //         }\r\n    //     }\r\n    // }\r\n    \r\n    // function matching() public view returns(state)\r\n    // {\r\n    //     for(uint i=0;i<id;i++)\r\n    //     {\r\n    //         for(uint j=i+1;j<id;j++)\r\n    //         {\r\n    //             if(donation[i].blood_group == donation[j].blood_group)\r\n    //             {\r\n    //                 revert(\"Found\");\r\n    //             }\r\n    //         }\r\n    //     }\r\n    // }\r\n    \r\n    function gettotalcount() public view returns(uint)\r\n    {\r\n        return id;\r\n    }\r\n    \r\n    \r\n    \r\n}",
  "sourcePath": "C:\\Users\\shavej shaikh\\Desktop\\Nodejs\\truffle_exam\\contracts\\kidney.sol",
  "compiler": {
    "name": "solc",
    "version": "0.5.16+commit.9c3226ce.Emscripten.clang"
  },
  "schemaVersion": "3.0.23",
  "updatedAt": "2020-02-15T16:34:44.636Z",
  "devdoc": {
    "methods": {}
  },
  "userdoc": {
    "methods": {}
  }
}